:08000000803102288731F62F40
:1008AE0021008E018F010800383021009900980137
:1008BE0022009601033020008D0023000D108D10B4
:1008CE000800F601F31F6C2C6D2C742CF209F30941
:1008DE00F20A0319F30AF601F60AF11F772C782CA7
:1008EE007D2CF009F109F00A0319F10A7008710460
:1008FE000319822C832CAC2CF501F50A8F2C0130B8
:10090E00F035F10D890B872C0130F4007408F507D2
:10091E00F11F922C932C862C71087302031D992CB7
:10092E0070087202031C9C2C9D2CA12C7008F202E4
:10093E007108F33B0130F136F00C890BA22C01301B
:10094E00F502031DAB2CAC2C932C76080319B02C9E
:10095E00B12CB62CF209F309F20A0319F30A730843
:10096E00F1007208F0000800F601F11FBF2CC02C38
:10097E00C72CF009F109F00A0319F10AF601F60A7B
:10098E00F31FCA2CCB2CD42CF209F309F20A03194B
:10099E00F30A0130F4007408F606F701F801700846
:1009AE0071040319DB2CDC2C0B2DF501F50AE82C58
:1009BE000130F035F10D890BE02C0130F400740894
:1009CE00F507F11FEB2CEC2CDF2C0130F735F80D71
:1009DE00890BED2C71087302031DF72C700872023F
:1009EE00031CFA2CFB2C002D7008F2027108F33B4D
:1009FE0077140130F136F00C890B012D0130F50220
:100A0E00031D0A2D0B2DEC2C760803190F2D102D1E
:100A1E00152DF709F809F70A0319F80A7808F100F5
:100A2E007708F0000800752D22000E148E140E1596
:100A3E008E150E168E160E139A2D22000E108E1473
:100A4E000E158E110E128E120E139A2D22000E14EA
:100A5E008E140E118E150E168E120E179A2D220052
:100A6E000E148E140E158E150E128E120E179A2D42
:100A7E0022000E108E140E158E110E128E160E17DB
:100A8E009A2D22000E148E100E158E150E128E1625
:100A9E000E179A2D22000E148E100E158E150E1690
:100AAE008E160E179A2D22000E148E140E158E1100
:100ABE000E128E160E139A2D22000E148E140E1573
:100ACE008E150E168E160E179A2D22000E148E14DB
:100ADE000E158E150E128E160E179A2D7108003ADF
:100AEE0003197A2D9A2D7008003A03191B2D013A1D
:100AFE000319242D033A03192D2D013A0319362D0E
:100B0E00073A03193F2D013A0319482D033A0319E9
:100B1E00512D013A03195A2D0F3A0319632D013A3B
:100B2E0003196C2D9A2D0800F62D22000F148F1428
:100B3E000F158F150F168F160F131B2E22000F1069
:100B4E008F140F158F110F128F120F131B2E2200E1
:100B5E000F148F140F118F150F168F120F171B2EC8
:100B6E0022000F148F140F158F150F128F120F17DF
:100B7E001B2E22000F108F140F158F110F128F16B0
:100B8E000F171B2E22000F148F100F158F150F121B
:100B9E008F160F171B2E22000F148F100F158F1587
:100BAE000F168F160F171B2E22000F148F140F15F2
:100BBE008F110F128F160F131B2E22000F148F146E
:100BCE000F158F150F168F160F171B2E22000F14D1
:100BDE008F140F158F150F128F160F171B2E7108EE
:100BEE00003A0319FB2D1B2E7008003A03199C2D99
:100BFE00013A0319A52D033A0319AE2D013A031933
:100C0E00B72D073A0319C02D013A0319C92D033A1E
:100C1E000319D22D013A0319DB2D0F3A0319E42DD6
:100C2E00013A0319ED2D1B2E080084315B24863109
:100C3E00843157248631FB01FC01FD01FD0A2000A1
:100C4E000D080339A400DE2F7D03031D2F2E302E39
:100C5E00B82E62307B067C040319362E372E3E2EBC
:100C6E0063307B067C04031D3D2E3E2E782EFB0149
:100C7E00FC010A30F0000030F1000030F200F30009
:100C8E008431BB24863171082000A3007008A200B5
:100C9E000A30F0000030F1000030F200F300843131
:100CAE006824863171082000A1007008A000230876
:100CBE00F1002208F00085311A2586312000210826
:100CCE00F1002008F00085319B2586310630FA00B0
:100CDE001330F900AE30890B722EF90B722EFA0B0F
:100CEE00722E7B08023EFB0000307C3DFC000A3079
:100CFE00F0000030F1007C08F3007B08F200843134
:100D0E00BB24863171082000A3007008A2000A30AF
:100D1E00F0000030F1007C08F3007B08F200843113
:100D2E006824863171082000A1007008A0002308F5
:100D3E00F1002208F00085311A25863120002108A5
:100D4E00F1002008F00085319B2586310630FA002F
:100D5E001330F900AE30890BB22EF90BB22EFA0B0E
:100D6E00B22E7D08031DBC2EBD2E262E7B037C04C9
:100D7E000319C22EC32EC92E7B087C04031DC82E58
:100D8E00C92E072F6330FB000030FC000A30F00044
:100D9E000030F1006330F2000030F3008431BB24E8
:100DAE00863171082000A3007008A2000A30F000FE
:100DBE000030F1006330F2000030F300843168241B
:100DCE00863171082000A1007008A0002308F100F0
:100DDE002208F00085311A25863120002108F10005
:100DEE002008F00085319B2586310630FA0013303D
:100DFE00F900AE30890B012FF90B012FFA0B012FE1
:100E0E007B08FE3EFB00FF307C3DFC000A30F0000C
:100E1E000030F1007C08F3007B08F2008431BB2423
:100E2E00863171082000A3007008A2000A30F0007D
:100E3E000030F1007C08F3007B08F2008431682456
:100E4E00863171082000A1007008A0002308F1006F
:100E5E002208F00085311A25863120002108F10084
:100E6E002008F00085319B2586310630FA001330BC
:100E7E00F900AE30890B412FF90B412FFA0B412FA0
:100E8E00262EFD017B087C04031D4E2F4F2F8D2F28
:100E9E006330FB000030FC000A30F0000030F1003F
:100EAE006330F2000030F3008431BB2486317108C8
:100EBE002000A3007008A2000A30F0000030F100FC
:100ECE006330F2000030F3008431682486317108FB
:100EDE002000A1007008A0002308F1002208F000F5
:100EEE0085311A25863120002108F1002008F000F6
:100EFE0085319B2586310630FA001330F900AE306D
:100F0E00890B872FF90B872FFA0B872F7B08FF3E54
:100F1E00FB00FF307C3DFC000D2FFD01FD0A633010
:100F2E007B067C04031D9C2F9D2FD72FFB01FC01FC
:100F3E000A30F0000030F1000030F200F30084318E
:100F4E00BB24863171082000A3007008A2000A306D
:100F5E00F0000030F1000030F200F300843168241C
:100F6E00863171082000A1007008A0002308F1004E
:100F7E002208F00085311A25863120002108F10063
:100F8E002008F00085319B2586310630FA0013309B
:100F9E00F900AE30890BD12FF90BD12FFA0BD12FCF
:100FAE007B08013EFB0000307C3DFC000D2F240829
:100FBE00F900FA017A08003A0319E62F262E79086D
:100FCE00003A03192B2E013A0319482F033A03193D
:100FDE00942F013A0319262E262E80310228FB016A
:100FEE00FC012000A001A101A201A3012000863175
:020FFE001C2EA7
:020000040001F9
:04000E00E23FFF3E90
:00000001FF
