:08000000803102288731FD2F39
:100F7C0021000F148F140F118F1123000F108F10DD
:100F8C0008008731BE27873120000F18CE2FCF2FB6
:100F9C00D62F8F18D22FD32FD62F22000F118F11AF
:100FAC0020000F1CDA2FDB2FE22F8F18DE2FDF2F04
:100FBC00E22F22000F158F1120000F18E62FE72FBC
:100FCC00EE2F8F1CEA2FEB2FEE2F22000F118F1517
:100FDC0020000F1CF22FF32FCA2F8F1CF62FF72F88
:100FEC00CA2F22000F118F11CA2F80310228200026
:040FFC008731C72F43
:020000040001F9
:04000E00E23FFF3E90
:00000001FF
