:08000000803102288731E52F51
:100F08003E340034FE0012001E00FE0B872F003412
:100F18004034793424343034193412340234783477
:100F280000341834BF348634DB34CF34E634ED343F
:100F3800FD348734FF34E73421008F010D1023007E
:100F48000D1021008D1023008D10F6010630F000E1
:100F58000030F1000230F2000030F30022000D14DE
:100F68008D102000220822008F000230F500863004
:100F7800F4009930890BBE2FF40BBE2FF50BBE2F52
:100F8800000022000D108D142000260822008F007A
:100F98000230F5008630F4009930890BD12FF40B1C
:100FA800D12FF50BD12F00000130F4007408F6079B
:100FB8000A307602031CE12FE22FAA2FA92F8031D5
:100FC8000228873184278731F700873185278731C1
:100FD800F8008C308400873085002030860000308F
:100FE80087001430873186278731F001F101F2013B
:080FF800F30120008731A02F56
:020000040001F9
:04000E00E23FFF3E90
:00000001FF
