:08000000803102288731EA2F4C
:100B5800E8340334F4340134643400343830210088
:100B6800990098012200960121008E018F01FF3023
:100B78008D0023008D018F0122008E018F01080056
:100B88008531B225853120000D080739FA007A0829
:100B980022008E00F801F901F90A7808031DD52D05
:100BA800D62DEF2E7903031DDA2DDB2D2F2E031002
:100BB80022008E0D03108F0D770C031C0F100318E5
:100BC8000F14760C031C0E1003180E140330FC00CF
:100BD8008A30FB005630890BEF2DFB0BEF2DFC0BF9
:100BE800EF2D22000E08FB000730FB36890BF92D8C
:100BF8007B080139F7000F08FB000730FB36890B2B
:100C0800022E7B080139F60020000D1B0C2E0D2E3C
:100C1800132E0D1F102E112E0D2EF801F80A0D1A85
:100C2800162E172E1D2E0D1E1A2E1B2E172E0230B5
:100C3800F9008D1B202E212E2F2E8D1F242E252EC0
:100C4800212E22008F018E0120000D080739FA009D
:100C58007A0822008E0002307906031D342E352EC4
:100C6800942E031022008E0D03108F0D770C031C99
:100C78000F1003180F14760C031C0E1003180E1413
:100C88000D30FC00AF30FB00B630890B492EFB0B52
:100C9800492EFC0B492E003222000E08FB000730BB
:100CA800FB36890B542E7B080139F7000F08FB002F
:100CB8000730FB36890B5D2E7B080139F6002000D2
:100CC8000D1B672E682E6E2E0D1F6B2E6C2E682E38
:100CD800F801F80A0D1A712E722E782E0D1E752E37
:100CE800762E722E0330F9008D1A7B2E7C2E822EE2
:100CF8008D1E7F2E802E7C2EF901F90A8D1B852EE4
:100D0800862E942E8D1F892E8A2E862E22008F01E4
:100D18008E0120000D080739FA007A0822008E009B
:100D280003307906031D992E9A2EEF2E0310220008
:100D38008E0D03108F0D770C031C0F1003180F1462
:100D4800760C031C0E1003180E141A30FC005E30CB
:100D5800FB006E30890BAE2EFB0BAE2EFC0BAE2EBD
:100D6800003222000E08FB000730FB36890BB92E33
:100D78007B080139F7000F08FB000730FB36890BA9
:100D8800C22E7B080139F60020000D1BCC2ECD2E7B
:100D9800D32E0D1FD02ED12ECD2EF801F80A8D1A84
:100DA800D62ED72EDD2E8D1EDA2EDB2ED72E023034
:100DB800F9008D1BE02EE12EEF2E8D1FE42EE52E7F
:100DC800E12E22008F018E0120000D080739FA005C
:100DD8007A0822008E007803031DF32EF42ED12DFD
:100DE8007903031DF82EF92E402F22000E08013931
:100DF800F7000F080139F6000330FC008A30FB00C9
:100E08005630890B052FFB0B052FFC0B052F031004
:100E180022008E0C03108F0C770C031C8F13031801
:100E28008F17760C031C8E1303188E1720000D1BCA
:100E38001E2F1F2F242F0D1F222F232F1F2FF801A6
:100E48000D1A272F282F2E2F8D1E2B2F2C2F282FB2
:100E58000230F9008D1B312F322F402F8D1F352F77
:100E6800362F322F22008F018E0120000D080739FE
:100E7800FA007A0822008E0002307906031D452FF9
:100E8800462F982F22000E080139F7000F08013964
:100E9800F6000D30FC00AF30FB00B630890B522F46
:100EA800FB0B522FFC0B522F0032031022008E0C2A
:100EB80003108F0C770C031C8F1303188F17760CF5
:100EC800031C8E1303188E1720000D1B6C2F6D2F1B
:100ED800722F0D1F702F712F6D2FF8010D1A752F9E
:100EE800762F7C2F0D1E792F7A2F762F0330F9005D
:100EF8008D1A7F2F802F862F8D1E832F842F802F72
:100F0800F901F90A8D1B892F8A2F982F8D1F8D2F94
:100F18008E2F8A2F22008F018E0120000D0807399D
:100F2800FA007A0822008E0003307906031D9D2FEF
:100F38009E2FD12D22000E080139F7000F08013924
:100F4800F6001A30FC005E30FB006E30890BAA2FC9
:100F5800FB0BAA2FFC0BAA2F0032031022008E0CC9
:100F680003108F0C770C031C8F1303188F17760C44
:100F7800031C8E1303188E1720000D1BC42FC52FBA
:100F8800CA2F0D1FC82FC92FC52FF8018D1ACD2FB5
:100F9800CE2FD42F8D1ED12FD22FCE2F0230F90075
:100FA8008D1BD72FD82FE72F8D1FDB2FDC2FD82FA6
:100FB80022008F018E0120000D080739FA007A08F7
:100FC80022008E00D12DD12D80310228AC30840032
:100FD800853085001200F0001200F1001200F200C6
:100FE8001200F3001200F4001200F500F601F701F8
:080FF800F80120008531C42D31
:020000040001F9
:04000E00E23FFF3E90
:00000001FF
