:08000000803102288731FD2F39
:100E5A0021008E018F0122000E100E160F148E1023
:100E6A008E128F108E150E138F11080087312D27C1
:100E7A0087317F30F100D430F0003230890B432FB4
:100E8A00F00B432FF10B432F22008E118E140D30DD
:100E9A00F100AF30F000B630890B512FF00B512F13
:100EAA00F10B512F003222008E100E141A30F1006D
:100EBA005E30F0006E30890B602FF00B602FF10B63
:100ECA00602F003222008E160D30F100AF30F00094
:100EDA00B630890B6E2FF00B6E2FF10B6E2F00328E
:100EEA0022000E128E120E177F30F100D430F0005D
:100EFA003230890B7E2FF00B7E2FF10B7E2F2200D2
:100F0A000E138E160D30F100AF30F000B630890B9B
:100F1A008C2FF00B8C2FF10B8C2F003222008E12AB
:100F2A000E161A30F1005E30F0006E30890B9B2FDE
:100F3A00F00B9B2FF10B9B2F003222008F140D30E8
:100F4A00F100AF30F000B630890BA92FF00BA92FB2
:100F5A00F10BA92F003222000F108F108F157F304E
:100F6A00F100D430F0003230890BB92FF00BB92FD1
:100F7A00F10BB92F22008F118F140D30F100AF3011
:100F8A00F000B630890BC72FF00BC72FF10BC72F14
:100F9A00003222008F100F141A30F1005E30F00078
:100FAA006E30890BD62FF00BD62FF10BD62F0032CD
:100FBA0022008E140D30F100AF30F000B630890BEC
:100FCA00E42FF00BE42FF10BE42F003222000E1075
:100FDA008E108E157F30F100D430F0003230890B3C
:100FEA00F42FF00BF42FF10BF42F3E2F803102284F
:060FFA00200087313B2FAF
:020000040001F9
:04000E00E23FFF3E90
:00000001FF
