:08000000803102288731FC2F3A
:100F160038302100990098012200960101308F0097
:100F260021008F01080087318B278731F201720873
:100F3600013EF4000130F000720AA22FF035890B51
:100F4600A12F7008FF3AF100710822008F050130C9
:100F5600F000740AAF2FF035890BAE2F7008F10040
:100F660071088F040830F1009D30F0000630890BBF
:100F7600BA2FF00BBA2FF10BBA2F0130F000700820
:100F8600F20707307202031CC92FCA2F9A2F0730A7
:100F9600F3007308FF3EF4000130F000730AD42F0B
:100FA600F035890BD32F7008FF3AF1007108220043
:100FB6008F050130F000740AE12FF035890BE02F20
:100FC6007008F10071088F040830F1009D30F000C0
:100FD6000630890BEC2FF00BEC2FF10BEC2F0130C8
:100FE600F3027308031DF82FF92FCC2F992F8031A8
:0A0FF6000228F40120008731962F35
:020000040001F9
:04000E00E23FFF3E90
:00000001FF
