:08000000803102288731FC2F3A
:100E5800FF3021008D0023008D0121008F01220029
:100E68008F0121000C148C140C1523000C108C100D
:100E78000C110800F300F201731C432F442F482F74
:100E88007008F1007108F2070310F00D0310F30C5D
:100E98007308031D502F512F402F72080800F200CD
:100EA800F40170080319592F5A2F7A2FF301F30A06
:100EB800632F0310F00D0130F1007108F307F01FE4
:100EC800662F672F5D2F0310F40D70087202031C44
:100ED8006E2F6F2F722F7008F20274140310F00C2B
:100EE8000130F302031D792F7A2F672F7408080049
:100EF80087312C27873120000D080F39F7000D089E
:100F0800F5000430F536890B862F75080F39F60081
:100F18000C188F2F902F9E2F8C18932F942F9E2F65
:100F28000C19972F982F9E2F77087607F8007808C6
:100F380022008F0020000C18A22FA32FBB2F8C1C7F
:100F4800A62FA72FBB2F0C19AA2FAB2FBB2F7708C3
:100F580076020318B02FB12FB52F76087702F80064
:100F6800B82F77087602F800780822008F00200052
:100F78000C1CBF2FC02FD22F8C18C32FC42FD22FD9
:100F88000C19C72FC82FD22F7608F00077088731A1
:100F98003E278731F800780822008F0020000C1CBB
:100FA800D62FD72F7F2F8C1CDA2FDB2F7F2F0C19F2
:100FB800DE2FDF2F7F2F770876020318E42FE52F27
:100FC800ED2F7608F0007708873153278731F8002E
:100FD800F42F7708F0007608873153278731F80017
:100FE800780822008F0078088F007F2F8031022830
:080FF800F801200087317C2F75
:020000040001F9
:04000E00E23FFF3E90
:00000001FF
