:08000000803102288731FC2F3A
:100E060021008E01080021000D168D160D178D1775
:100E160023000D128D1221008F0122008F01210067
:100E26009513F03024008D0008008731062787319E
:100E3600873103278731F501750887317727873191
:100E460020000D1A272F282F392F0D1E2B2F2C2F60
:100E5600282F0130F300750A312FF335890B302F17
:100E66007308FF3AF400740822008F0520008D1ADB
:100E76003D2F3E2F4E2F8D1E412F422F3E2F0130EC
:100E8600F300750A472FF335890B462F7308F400D4
:100E9600740822008F0420000D1B522F532F642F3D
:100EA6000D1F562F572F532F0130F3007308F507E8
:100EB6007508803A783E031C612F622F642F073035
:100EC600F5008D1B672F682F1F2F8D1F6B2F6C2F23
:100ED600682FFF30F3007308F507F51F732F742F83
:100EE6001F2F1E2F80310228F200D32F22000E1052
:100EF6008E100E118E110E128E120E17FB2F22005F
:100F06000E148E100E118E150E168E160E17FB2F42
:100F160022000E108E100E158E110E128E160E1346
:100F2600FB2F22000E108E100E118E110E168E162D
:100F36000E13FB2F22000E148E100E118E150E1698
:100F46008E120E13FB2F22000E108E140E118E1110
:100F56000E168E120E13FB2F22000E108E140E117B
:100F66008E110E128E120E13FB2F22000E108E10F3
:100F76000E118E150E168E120E17FB2F22000E1056
:100F86008E100E118E110E128E120E13FB2F2200D2
:100F96000E108E100E118E110E168E120E13FB2FC2
:100FA6007208F000F1017108003A0319DB2FFB2FDC
:100FB6007008003A0319792F013A0319822F033A70
:100FC60003198B2F013A0319942F073A03199D2F02
:100FD600013A0319A62F033A0319AF2F013A031951
:100FE600B82F0F3A0319C12F013A0319CA2FFB2F45
:0A0FF6000800F50120008731182FD4
:020000040001F9
:04000E00E23FFF3E90
:00000001FF
