:08000000803102288731FD2F39
:100F440022000F148F100F118F15080022000F10AC
:100F54008F140F158F11080022000F108F140F111A
:100F64008F11080022000F108F100F158F11080029
:100F740023008D018F0121000F108F100F118F118D
:100F840095130F3024008D0021008D158D140D153F
:100F94000D1420000D18CF2FD02FD32F8731A82761
:100FA400873120008D19D72FD82FDB2F8731A22727
:100FB400873120000D19DF2FE02FE32F8731AE2773
:100FC400873120008D18E72FE82FEB2F8731B427C6
:100FD40087310F3020000D05F0000F307006031D1F
:100FE400F42FF52FCB2F22000F108F100F118F111C
:0C0FF400CB2F8031022820008731BA2F5B
:020000040001F9
:04000E00E23FFF3E90
:00000001FF
