:08000000803102288731FD2F39
:100AE00038302100990098012200960121000D1450
:100AF0008D140D158D158F0123000D108D100D1106
:100B00008D118F0122008F010800853170258531FC
:100B1000FC0120000D1C8D2D8E2D912D7C08013E99
:100B2000FC008D1C942D952D982D7C08023EFC0018
:100B30000D1D9B2D9C2D9F2D7C08043EFC008D1DC2
:100B4000A22DA32DA62D7C08083EFC007C08853133
:100B5000AD258531882D80310228F200D72F220063
:100B60008F01F3010130F000730AB72DF035890BC6
:100B7000B62D7008F100710822008F040630F100D4
:100B80001330F000AE30890BC32DF00BC32DF10BE9
:100B9000C32D20000D18CD2DCE2DE52D8D18D12D76
:100BA000D22DE52D0D19D52DD62DE52D8D1DD92D47
:100BB000DA2DDB2DE52D0130F0007008F307083049
:100BC0007302031CE42DE52DB22D22008F010630A7
:100BD000F1001330F000AE30890BEC2DF00BEC2D52
:100BE000F10BEC2DFC2F22008F010730F4000130B7
:100BF000F000740AFC2DF035890BFB2D7008F10014
:100C0000710822008F040630F1001330F000AE307E
:100C1000890B082EF00B082EF10B082E20000D1C5E
:100C2000122E132E272E8D18162E172E272E0D1945
:100C30001A2E1B2E272E8D1D1E2E1F2E202E272EE8
:100C40000130F4027408031D262E272EF72D2200F2
:100C50000F140630F1001330F000AE30890B2E2E49
:100C6000F00B2E2EF10B2E2EE52DFF3022008F00E3
:100C7000F5010130F000750A3E2EF035890B3D2E4E
:100C80007008FF3AF100710822008F050630F1006C
:100C90001330F000AE30890B4B2EF00B4B2EF10BC6
:100CA0004B2E20000D18552E562E6D2E8D1C592EB4
:100CB0005A2E6D2E0D195D2E5E2E6D2E8D1D612E00
:100CC000622E632E6D2E0130F0007008F50708309B
:100CD0007502031C6C2E6D2E392EFF3022008F0002
:100CE0000630F1001330F000AE30890B752EF00B9A
:100CF000752EF10B752EFC2F22008F010630F800A7
:100D00000130F000780A852EF035890B842E7008AA
:100D1000F100710822008F040630F1001330F0005A
:100D2000AE30890B912EF00B912EF10B912E2000FD
:100D30000D1C9B2E9C2E272E8D1C9F2EA02E272E09
:100D40000D19A32EA42E272E8D1DA72EA82EA92E59
:100D5000272E7808FE3EF8007808031DB02EB12E2D
:100D6000802E272E22008F01F9010130F000790A30
:100D7000BA2EF035890BB92E7008F10071082200E7
:100D80008F040630F1001330F000AE30890BC62E10
:100D9000F00BC62EF10BC62E20000D18D02ED12E32
:100DA000E52D8D18D42ED52EE52D0D1DD82ED92E3E
:100DB000E52D8D1DDC2EDD2EDE2EE52D7908023E83
:100DC000F90007307902031CE62EE72EB52EE52D3B
:100DD00022008F01FA01FA0A0130F0007A0AF12E9E
:100DE000F035890BF02E7008F100710822008F0495
:100DF0000630F1001330F000AE30890BFD2EF00B01
:100E0000FD2EF10BFD2E20000D1C072F082FE52DC8
:100E10008D180B2F0C2FE52D0D1D0F2F102FE52DED
:100E20008D1D132F142F152FE52D7A08023EFA0081
:100E300008307A02031C1D2F1E2FEC2EE52D2200F8
:100E40008F010730FB000130F0007B0A282FF035BE
:100E5000890B272F7008F100710822008F040630DB
:100E6000F1001330F000AE30890B342FF00B342F2B
:100E7000F10B342F20000D183E2F3F2F552F8D1CC6
:100E8000422F432F552F0D1D462F472F552F8D1DB8
:100E90004A2F4B2F4C2F552F7B08FE3EFB00023074
:100EA0007B020318542F552F232F22008F14292E35
:100EB00022008F010730F6000130F000760A612F22
:100EC000F035890B602F7008F100710822008F0443
:100ED0000630F1001330F000AE30890B6D2FF00BAF
:100EE0006D2FF10B6D2F20000D1C772F782FE52D26
:100EF0008D1C7B2F7C2FE52D0D1D7F2F802FE52D49
:100F00008D1D832F842F852FE52D0130F602760865
:100F1000031D8B2F8C2F5C2FE52DFF3022008F00BF
:100F20000730F7000130F000770A972FF035890B72
:100F3000962F7008FF3AF100710822008F050630E5
:100F4000F1001330F000AE30890BA42FF00BA42F6A
:100F5000F10BA42F20000D18AE2FAF2FC32F8D182B
:100F6000B22FB32FC32F0D19B62FB72FC32F8D1943
:100F7000BA2FBB2FBC2FC32F0130F7027708031DF8
:100F8000C22FC32F922FFE30F000700822008F0571
:100F90000630F1001330F000AE30890BCD2FF00B8E
:100FA000CD2FF10BCD2FFF3022008F00E72D7208DF
:100FB000F000F1017108003A0319DF2FFC2F7008CF
:100FC000003A0319AF2D013A0319F32D033A03191F
:100FD000352E013A03197C2E073A0319B22E013A35
:100FE0000319E82E033A03191F2F013A0319582F4A
:100FF0000F3A03198D2FFC2F080020008531852D15
:020000040001F9
:04000E00E23FFF3E90
:00000001FF
