:08000000803102288731FD2F39
:100D8000FD007A08F5007D088731792786317C08D7
:100D9000F6007B08F5008631F92686310800F4005C
:100DA0007408F1000430F136890BD32E7108F2007B
:100DB00074080F39F30072088731272786317308CA
:100DC0008731272786310800F4007408F1000430C9
:100DD000F136890BE82E7108F20074080F39F30020
:100DE0007208873150278631730887315027863142
:100DF0000800062F750884007608850000088631F3
:100E0000E42686310130F5070030F63D7508840090
:100E1000760885001200031D0E2F0F2FFA2E0800F2
:100E20008731A62787310030F5008830F6008631FB
:100E3000F92687310830FA001530FB008830FC00B5
:100E400003308631C0268731242F80310228F000FC
:100E500022000F1070182D2F2E2F302F0F12312F30
:100E60000F16F018342F352F372F8F12382F8F167B
:100E700070193B2F3C2F3E2F0F133F2F0F17F019E8
:100E8000422F432F452F8F13462F8F178F108F140C
:100E90008F10D63000320032890B4A2F0032080002
:100EA000F00022000F147018562F572F592F0F12D1
:100EB0005A2F0F16F0185D2F5E2F602F8F12612FA3
:100EC0008F167019642F652F672F0F13682F0F1758
:100ED000F0196B2F6C2F6E2F8F136F2F8F178F10B2
:100EE0008F148F10D63000320032890B732F0032EE
:100EF0000800F8008B2F75087F3EF900A12F7508B8
:100F0000BF3EF900A12F7508933EF900A12F750887
:100F1000D33EF900A12F7808F600F7017708003AD0
:100F20000319932FA12F7608013A03197B2F033A57
:100F300003197F2F013A0319832F073A0319872FCB
:100F4000A12F79088631CF268731080021000F10A4
:100F50008F100F128F120F138F1322008F100F128A
:100F60008F120F138F1323000F108F100F128F1279
:100F70000F138F136230F1006630890BBD2FF10B18
:100F8000BD2F03308731272787312130F10076309C
:100F9000890BC82FF10BC82F003203308731272768
:100FA0008731A630890BD22F0032033087312727B3
:100FB0008731023087312727873102308731272751
:100FC000873108308731272787310030873127273D
:100FD00087310F3087312727873100308731272726
:100FE000873101308731272787310D30F100FC3000
:100FF000890BF82FF10BF82F080020008731102FF4
:1010000030343134323433343434353436343734A4
:101010003834393430343134323433343434353490
:10102000363437343834393400345334413450345E
:0A1030004F3420344834703400348B
:020000040001F9
:04000E00E23FFF3E90
:00000001FF
