:08000000803102288731FD2F39
:100F500021008E150E168E160E170F108F100F1102
:100F600022000F108F100F1108008731A82787313A
:100F700020008E19BC2FBD2FCB2F22000F18C12FA0
:100F8000C22FCB2F8F18C52FC62FCB2F0F19C92FCC
:100F9000CA2FCB2F0F1420000E1ACF2FD02FDE2FE9
:100FA00022000F18D42FD52FDE2F8F18D82FD92F2E
:100FB000DE2F0F19DC2FDD2FDE2F8F1420008E1A6D
:100FC000E22FE32FF12F22000F18E72FE82FF12F48
:100FD0008F18EB2FEC2FF12F0F19EF2FF02FF12F90
:100FE0000F1520000E1BF52FF62FB82F22000F1023
:100FF0008F100F11B82F8031022820008731B52FB4
:020000040001F9
:04000E00E23FFF3E90
:00000001FF
