:08000000803102288731FC2F3A
:100F860021000C1423000C1021008C1423008C105B
:100F960021008F0120008F0120000C1CD32FD42F9D
:100FA600DC2F0C18D72FD82FD42F0130F100710861
:100FB600F0078C18DF2FE02FE82F8C1CE32FE42F8F
:100FC600E02FFF30F1007108F0077008803A783E94
:100FD600031CEE2FEF2FF02FF001F01FF32FF42F4D
:100FE600F62F0730F000700822008F00CF2F8031D7
:0A0FF6000228F00120008731C32F0C
:020000040001F9
:04000E00E239FF1EB6
:00000001FF
