:08000000803102288731FC2F3A
:100E960021000D108D100D118D110D128D120D13D7
:100EA600080023008D0187314B278731750887316C
:100EB600772787310130F3007308F5070D30F4000A
:100EC600AF30F300B630890B662FF30B662FF40BA9
:100ED600662F00320A307502031C722F732F592FAA
:100EE600F501592F80310228F200D32F22000D1070
:100EF6008D100D118D110D128D120D17FB2F220065
:100F06000D148D100D118D150D168D160D17FB2F49
:100F160022000D108D100D158D110D128D160D134D
:100F2600FB2F22000D108D100D118D110D168D1633
:100F36000D13FB2F22000D148D100D118D150D169E
:100F46008D120D13FB2F22000D108D140D118D1116
:100F56000D168D120D13FB2F22000D108D140D1181
:100F66008D110D128D120D13FB2F22000D108D10F9
:100F76000D118D150D168D120D17FB2F22000D105C
:100F86008D100D118D110D128D120D13FB2F2200D8
:100F96000D108D100D118D110D168D120D13FB2FC9
:100FA6007208F000F1017108003A0319DB2FFB2FDC
:100FB6007008003A0319792F013A0319822F033A70
:100FC60003198B2F013A0319942F073A03199D2F02
:100FD600013A0319A62F033A0319AF2F013A031951
:100FE600B82F0F3A0319C12F013A0319CA2FFB2F45
:0A0FF6000800F50120008731542F98
:020000040001F9
:04000E00E23FFF3E90
:00000001FF
