:08000000803102288731FD2F39
:100F4A0022000F148F100F118F15080022000F10A6
:100F5A008F140F158F11080022000F108F140F1114
:100F6A008F11080022000F108F100F158F11080023
:100F7A0021000F108F100F118F110C148C140C15E7
:100F8A0023000C108C100C1122000F108F100F115F
:100F9A008F1108008731BD27873120008C1CD62F7E
:100FAA00D72FDA2F8731AB27873120000C1CDE2F91
:100FBA00DF2FE22F8731B727873120000C1DE62F5C
:100FCA00E72FEA2F8731B127873120000C18EE2F3F
:100FDA00EF2FD22F8C18F22FF32FD22F0C19F62FB6
:100FEA00F72FD22F8731A5278731D22F80310228B8
:060FFA0020008731CF2F1B
:020000040001F9
:04000E00E23FFF3E90
:00000001FF
